{
  "contractName": "LicitacaoContract",
  "abi": [
    {
      "constant": true,
      "inputs": [
        {
          "name": "",
          "type": "uint256"
        }
      ],
      "name": "empresasIds",
      "outputs": [
        {
          "name": "",
          "type": "uint256"
        }
      ],
      "payable": false,
      "stateMutability": "view",
      "type": "function"
    },
    {
      "constant": true,
      "inputs": [
        {
          "name": "",
          "type": "uint256"
        }
      ],
      "name": "licitacoesIds",
      "outputs": [
        {
          "name": "",
          "type": "uint256"
        }
      ],
      "payable": false,
      "stateMutability": "view",
      "type": "function"
    },
    {
      "constant": true,
      "inputs": [
        {
          "name": "",
          "type": "uint256"
        }
      ],
      "name": "ofertasIds",
      "outputs": [
        {
          "name": "",
          "type": "uint256"
        }
      ],
      "payable": false,
      "stateMutability": "view",
      "type": "function"
    },
    {
      "anonymous": false,
      "inputs": [
        {
          "indexed": false,
          "name": "_empresaId",
          "type": "uint256"
        },
        {
          "indexed": false,
          "name": "_msg",
          "type": "string"
        }
      ],
      "name": "empresaRegistered",
      "type": "event"
    },
    {
      "anonymous": false,
      "inputs": [
        {
          "indexed": false,
          "name": "_empresaId",
          "type": "uint256"
        },
        {
          "indexed": false,
          "name": "_msg",
          "type": "string"
        }
      ],
      "name": "empresaUpdated",
      "type": "event"
    },
    {
      "anonymous": false,
      "inputs": [
        {
          "indexed": false,
          "name": "_licitacaoId",
          "type": "uint256"
        },
        {
          "indexed": false,
          "name": "_msg",
          "type": "string"
        }
      ],
      "name": "licitacaoRegistered",
      "type": "event"
    },
    {
      "anonymous": false,
      "inputs": [
        {
          "indexed": false,
          "name": "_licitacaoId",
          "type": "uint256"
        },
        {
          "indexed": false,
          "name": "_msg",
          "type": "string"
        }
      ],
      "name": "licitacaoUpdated",
      "type": "event"
    },
    {
      "anonymous": false,
      "inputs": [
        {
          "indexed": false,
          "name": "_licitacaoId",
          "type": "uint256"
        },
        {
          "indexed": false,
          "name": "_msg",
          "type": "string"
        }
      ],
      "name": "ofertaRegistered",
      "type": "event"
    },
    {
      "anonymous": false,
      "inputs": [
        {
          "indexed": false,
          "name": "_licitacaoId",
          "type": "uint256"
        },
        {
          "indexed": false,
          "name": "_msg",
          "type": "string"
        }
      ],
      "name": "ofertaUpdated",
      "type": "event"
    },
    {
      "constant": false,
      "inputs": [
        {
          "name": "_razaoSocial",
          "type": "string"
        },
        {
          "name": "_cnpj",
          "type": "uint256"
        },
        {
          "name": "_telefone",
          "type": "string"
        }
      ],
      "name": "adicionarEmpresa",
      "outputs": [],
      "payable": false,
      "stateMutability": "nonpayable",
      "type": "function"
    },
    {
      "constant": false,
      "inputs": [
        {
          "name": "_id",
          "type": "uint256"
        },
        {
          "name": "_razaoSocial",
          "type": "string"
        },
        {
          "name": "_cnpj",
          "type": "uint256"
        },
        {
          "name": "_telefone",
          "type": "string"
        }
      ],
      "name": "alterarEmpresa",
      "outputs": [],
      "payable": false,
      "stateMutability": "nonpayable",
      "type": "function"
    },
    {
      "constant": true,
      "inputs": [
        {
          "name": "_id",
          "type": "uint256"
        }
      ],
      "name": "empresaInfo",
      "outputs": [
        {
          "name": "",
          "type": "uint256"
        },
        {
          "name": "",
          "type": "string"
        },
        {
          "name": "",
          "type": "uint256"
        },
        {
          "name": "",
          "type": "string"
        },
        {
          "name": "",
          "type": "address"
        }
      ],
      "payable": false,
      "stateMutability": "view",
      "type": "function"
    },
    {
      "constant": true,
      "inputs": [],
      "name": "listarEmpresas",
      "outputs": [
        {
          "name": "",
          "type": "uint256[]"
        },
        {
          "name": "",
          "type": "string[]"
        },
        {
          "name": "",
          "type": "uint256[]"
        },
        {
          "name": "",
          "type": "string[]"
        },
        {
          "name": "",
          "type": "address[]"
        }
      ],
      "payable": false,
      "stateMutability": "view",
      "type": "function"
    },
    {
      "constant": false,
      "inputs": [
        {
          "name": "_titulo",
          "type": "string"
        },
        {
          "name": "_codigo",
          "type": "uint256"
        },
        {
          "name": "_dataInicio",
          "type": "string"
        },
        {
          "name": "_dataFim",
          "type": "string"
        },
        {
          "name": "_status",
          "type": "string"
        }
      ],
      "name": "adicionarLicitacao",
      "outputs": [],
      "payable": false,
      "stateMutability": "nonpayable",
      "type": "function"
    },
    {
      "constant": false,
      "inputs": [
        {
          "name": "_id",
          "type": "uint256"
        },
        {
          "name": "_titulo",
          "type": "string"
        },
        {
          "name": "_codigo",
          "type": "uint256"
        },
        {
          "name": "_dataInicio",
          "type": "string"
        },
        {
          "name": "_dataFim",
          "type": "string"
        },
        {
          "name": "_status",
          "type": "string"
        }
      ],
      "name": "alterarLicitacao",
      "outputs": [],
      "payable": false,
      "stateMutability": "nonpayable",
      "type": "function"
    },
    {
      "constant": true,
      "inputs": [
        {
          "name": "_id",
          "type": "uint256"
        }
      ],
      "name": "licitacaoInfo",
      "outputs": [
        {
          "name": "",
          "type": "uint256"
        },
        {
          "name": "",
          "type": "string"
        },
        {
          "name": "",
          "type": "uint256"
        },
        {
          "name": "",
          "type": "string"
        },
        {
          "name": "",
          "type": "string"
        },
        {
          "name": "",
          "type": "string"
        },
        {
          "name": "",
          "type": "address"
        }
      ],
      "payable": false,
      "stateMutability": "view",
      "type": "function"
    },
    {
      "constant": true,
      "inputs": [],
      "name": "listarLicitacoes",
      "outputs": [
        {
          "name": "",
          "type": "uint256[]"
        },
        {
          "name": "",
          "type": "string[]"
        },
        {
          "name": "",
          "type": "uint256[]"
        },
        {
          "name": "",
          "type": "string[]"
        },
        {
          "name": "",
          "type": "string[]"
        },
        {
          "name": "",
          "type": "string[]"
        },
        {
          "name": "",
          "type": "address[]"
        }
      ],
      "payable": false,
      "stateMutability": "view",
      "type": "function"
    },
    {
      "constant": false,
      "inputs": [
        {
          "name": "_licitacaoId",
          "type": "uint256"
        },
        {
          "name": "_data",
          "type": "string"
        },
        {
          "name": "_valor",
          "type": "uint256"
        }
      ],
      "name": "adicionarOferta",
      "outputs": [],
      "payable": false,
      "stateMutability": "nonpayable",
      "type": "function"
    },
    {
      "constant": false,
      "inputs": [
        {
          "name": "_id",
          "type": "uint256"
        },
        {
          "name": "_licitacaoId",
          "type": "uint256"
        },
        {
          "name": "_data",
          "type": "string"
        },
        {
          "name": "_valor",
          "type": "uint256"
        }
      ],
      "name": "alterarOferta",
      "outputs": [],
      "payable": false,
      "stateMutability": "nonpayable",
      "type": "function"
    },
    {
      "constant": true,
      "inputs": [
        {
          "name": "_id",
          "type": "uint256"
        }
      ],
      "name": "ofertaInfo",
      "outputs": [
        {
          "name": "",
          "type": "uint256"
        },
        {
          "name": "",
          "type": "uint256"
        },
        {
          "name": "",
          "type": "string"
        },
        {
          "name": "",
          "type": "uint256"
        },
        {
          "name": "",
          "type": "address"
        }
      ],
      "payable": false,
      "stateMutability": "view",
      "type": "function"
    },
    {
      "constant": true,
      "inputs": [],
      "name": "listarOfertas",
      "outputs": [
        {
          "name": "",
          "type": "uint256[]"
        },
        {
          "name": "",
          "type": "uint256[]"
        },
        {
          "name": "",
          "type": "string[]"
        },
        {
          "name": "",
          "type": "uint256[]"
        },
        {
          "name": "",
          "type": "address[]"
        }
      ],
      "payable": false,
      "stateMutability": "view",
      "type": "function"
    }
  ],
  "bytecode": "0x608060405260006006556000600755600060085534801561001f57600080fd5b506128d58061002f6000396000f3fe6080604052600436106100db576000357c0100000000000000000000000000000000000000000000000000000000900463ffffffff1680630ea1589b146100e05780631827fa1014610109578063383358d21461013257806339427a8014610173578063457f2795146101a457806356b40609146101d35780635cc0a659146101fc5780635cca8bb0146102395780635fffc68814610276578063661045501461029f5780637a2fc095146102ce578063806cae65146103115780638f41493a1461033a578063ee44391614610363578063f8e45cda146103a4575b600080fd5b3480156100ec57600080fd5b5061010760048036036101029190810190611f64565b6103e1565b005b34801561011557600080fd5b50610130600480360361012b9190810190611d81565b610461565b005b34801561013e57600080fd5b5061015960048036036101549190810190611d58565b6105bc565b60405161016a9594939291906124ca565b60405180910390f35b34801561017f57600080fd5b506101886107cf565b60405161019b9796959493929190612399565b60405180910390f35b3480156101b057600080fd5b506101b9610af9565b6040516101ca959493929190612323565b60405180910390f35b3480156101df57600080fd5b506101fa60048036036101f59190810190611c81565b610d66565b005b34801561020857600080fd5b50610223600480360361021e9190810190611d58565b610f1c565b60405161023091906124af565b60405180910390f35b34801561024557600080fd5b50610260600480360361025b9190810190611d58565b610f3f565b60405161026d91906124af565b60405180910390f35b34801561028257600080fd5b5061029d60048036036102989190810190611c02565b610f62565b005b3480156102ab57600080fd5b506102b46110cf565b6040516102c5959493929190612439565b60405180910390f35b3480156102da57600080fd5b506102f560048036036102f09190810190611d58565b611335565b604051610308979695949392919061252b565b60405180910390f35b34801561031d57600080fd5b5061033860048036036103339190810190611de8565b6116a6565b005b34801561034657600080fd5b50610361600480360361035c9190810190611e7b565b611735565b005b34801561036f57600080fd5b5061038a60048036036103859190810190611d58565b6117f9565b60405161039b9594939291906126ca565b60405180910390f35b3480156103b057600080fd5b506103cb60048036036103c69190810190611d58565b611970565b6040516103d891906124af565b60405180910390f35b600060046000868152602001908152602001600020905083816001018190555082816002019080519060200190610419929190611993565b508181600301819055507f137ef028ba8bb48406ad27cb3f1ced7308bb585a296d161d508242f88daf516285604051610452919061266e565b60405180910390a15050505050565b60a06040519081016040528060085481526020018481526020018381526020018281526020013373ffffffffffffffffffffffffffffffffffffffff16815250600460006008548152602001908152602001600020600082015181600001556020820151816001015560408201518160020190805190602001906104e6929190611a13565b506060820151816003015560808201518160040160006101000a81548173ffffffffffffffffffffffffffffffffffffffff021916908373ffffffffffffffffffffffffffffffffffffffff160217905550905050600560085490806001815401808255809150509060018203906000526020600020016000909192909190915055506008600081548092919060010191905055507f2eca47e638275eaf04a12dc83a41d7e38b911be808e29a72a1368a11c86bd6596001600854036040516105af919061269c565b60405180910390a1505050565b600060606000606060006105ce611a93565b60008088815260200190815260200160002060a0604051908101604052908160008201548152602001600182018054600181600116156101000203166002900480601f01602080910402602001604051908101604052809291908181526020018280546001816001161561010002031660029004801561068f5780601f106106645761010080835404028352916020019161068f565b820191906000526020600020905b81548152906001019060200180831161067257829003601f168201915b5050505050815260200160028201548152602001600382018054600181600116156101000203166002900480601f01602080910402602001604051908101604052809291908181526020018280546001816001161561010002031660029004801561073b5780601f106107105761010080835404028352916020019161073b565b820191906000526020600020905b81548152906001019060200180831161071e57829003601f168201915b505050505081526020016004820160009054906101000a900473ffffffffffffffffffffffffffffffffffffffff1673ffffffffffffffffffffffffffffffffffffffff1673ffffffffffffffffffffffffffffffffffffffff1681525050905080600001518160200151826040015183606001518460800151839350819150955095509550955095505091939590929450565b606080606080606080606080600380548060200260200160405190810160405280929190818152602001828054801561082757602002820191906000526020600020905b815481526020019060010190808311610813575b50505050509050606081516040519080825280602002602001820160405280156108605781602001602082028038833980820191505090505b5090506060825160405190808252806020026020018201604052801561089a57816020015b60608152602001906001900390816108855790505b509050606083516040519080825280602002602001820160405280156108cf5781602001602082028038833980820191505090505b5090506060845160405190808252806020026020018201604052801561090957816020015b60608152602001906001900390816108f45790505b5090506060855160405190808252806020026020018201604052801561094357816020015b606081526020019060019003908161092e5790505b5090506060865160405190808252806020026020018201604052801561097d57816020015b60608152602001906001900390816109685790505b509050606087516040519080825280602002602001820160405280156109b25781602001602082028038833980820191505090505b50905060008090505b8851811015610ad2576109cd81611335565b8595508393508292508191508e888151811015156109e757fe5b9060200190602002018e898151811015156109fe57fe5b9060200190602002018e8a815181101515610a1557fe5b9060200190602002018e8b815181101515610a2c57fe5b9060200190602002018e8c815181101515610a4357fe5b9060200190602002018e8d815181101515610a5a57fe5b9060200190602002018e8e815181101515610a7157fe5b9060200190602002018773ffffffffffffffffffffffffffffffffffffffff1673ffffffffffffffffffffffffffffffffffffffff1681525087905287905287905287815250879052878152505050505050505080806001019150506109bb565b50868686868686869e509e509e509e509e509e509e50505050505050505090919293949596565b6060806060806060806001805480602002602001604051908101604052809291908181526020018280548015610b4e57602002820191906000526020600020905b815481526020019060010190808311610b3a575b5050505050905060608151604051908082528060200260200182016040528015610b875781602001602082028038833980820191505090505b50905060608251604051908082528060200260200182016040528015610bc157816020015b6060815260200190600190039081610bac5790505b50905060608351604051908082528060200260200182016040528015610bf65781602001602082028038833980820191505090505b50905060608451604051908082528060200260200182016040528015610c3057816020015b6060815260200190600190039081610c1b5790505b50905060608551604051908082528060200260200182016040528015610c655781602001602082028038833980820191505090505b50905060008090505b8651811015610d4957610c80816105bc565b8393508191508a86815181101515610c9457fe5b9060200190602002018a87815181101515610cab57fe5b9060200190602002018a88815181101515610cc257fe5b9060200190602002018a89815181101515610cd957fe5b9060200190602002018a8a815181101515610cf057fe5b9060200190602002018573ffffffffffffffffffffffffffffffffffffffff1673ffffffffffffffffffffffffffffffffffffffff16815250859052858152508590528581525050505050508080600101915050610c6e565b5084848484849a509a509a509a509a505050505050509091929394565b60e06040519081016040528060075481526020018681526020018581526020018481526020018381526020018281526020013373ffffffffffffffffffffffffffffffffffffffff16815250600260006007548152602001908152602001600020600082015181600001556020820151816001019080519060200190610ded929190611a13565b50604082015181600201556060820151816003019080519060200190610e14929190611a13565b506080820151816004019080519060200190610e31929190611a13565b5060a0820151816005019080519060200190610e4e929190611a13565b5060c08201518160060160006101000a81548173ffffffffffffffffffffffffffffffffffffffff021916908373ffffffffffffffffffffffffffffffffffffffff160217905550905050600360075490806001815401808255809150509060018203906000526020600020016000909192909190915055506007600081548092919060010191905055507f7e4d646cb32a51fc6ccdc44b3e198cabb1c7467c92291f92bf232518c2713e4d600160075403604051610f0d91906125e4565b60405180910390a15050505050565b600181815481101515610f2b57fe5b906000526020600020016000915090505481565b600381815481101515610f4e57fe5b906000526020600020016000915090505481565b60a06040519081016040528060065481526020018481526020018381526020018281526020013373ffffffffffffffffffffffffffffffffffffffff168152506000806006548152602001908152602001600020600082015181600001556020820151816001019080519060200190610fdc929190611a13565b50604082015181600201556060820151816003019080519060200190611003929190611a13565b5060808201518160040160006101000a81548173ffffffffffffffffffffffffffffffffffffffff021916908373ffffffffffffffffffffffffffffffffffffffff160217905550905050600160065490806001815401808255809150509060018203906000526020600020016000909192909190915055506006600081548092919060010191905055507fdcb0928022a6ac578b58f5c1c28b05dbc35b0469fbba2599f268963ff71a78a56001600654036040516110c29190612612565b60405180910390a1505050565b606080606080606080600580548060200260200160405190810160405280929190818152602001828054801561112457602002820191906000526020600020905b815481526020019060010190808311611110575b505050505090506060815160405190808252806020026020018201604052801561115d5781602001602082028038833980820191505090505b509050606082516040519080825280602002602001820160405280156111925781602001602082028038833980820191505090505b509050606083516040519080825280602002602001820160405280156111cc57816020015b60608152602001906001900390816111b75790505b509050606084516040519080825280602002602001820160405280156112015781602001602082028038833980820191505090505b509050606085516040519080825280602002602001820160405280156112365781602001602082028038833980820191505090505b50905060008090505b865181101561131857611251816117f9565b8292508a8681518110151561126257fe5b9060200190602002018a8781518110151561127957fe5b9060200190602002018a8881518110151561129057fe5b9060200190602002018a898151811015156112a757fe5b9060200190602002018a8a8151811015156112be57fe5b9060200190602002018573ffffffffffffffffffffffffffffffffffffffff1673ffffffffffffffffffffffffffffffffffffffff168152508581525085905285815250858152505050505050808060010191505061123f565b5084848484849a509a509a509a509a505050505050509091929394565b6000606060006060806060600061134a611ad9565b600260008a815260200190815260200160002060e0604051908101604052908160008201548152602001600182018054600181600116156101000203166002900480601f01602080910402602001604051908101604052809291908181526020018280546001816001161561010002031660029004801561140c5780601f106113e15761010080835404028352916020019161140c565b820191906000526020600020905b8154815290600101906020018083116113ef57829003601f168201915b5050505050815260200160028201548152602001600382018054600181600116156101000203166002900480601f0160208091040260200160405190810160405280929190818152602001828054600181600116156101000203166002900480156114b85780601f1061148d576101008083540402835291602001916114b8565b820191906000526020600020905b81548152906001019060200180831161149b57829003601f168201915b50505050508152602001600482018054600181600116156101000203166002900480601f01602080910402602001604051908101604052809291908181526020018280546001816001161561010002031660029004801561155a5780601f1061152f5761010080835404028352916020019161155a565b820191906000526020600020905b81548152906001019060200180831161153d57829003601f168201915b50505050508152602001600582018054600181600116156101000203166002900480601f0160208091040260200160405190810160405280929190818152602001828054600181600116156101000203166002900480156115fc5780601f106115d1576101008083540402835291602001916115fc565b820191906000526020600020905b8154815290600101906020018083116115df57829003601f168201915b505050505081526020016006820160009054906101000a900473ffffffffffffffffffffffffffffffffffffffff1673ffffffffffffffffffffffffffffffffffffffff1673ffffffffffffffffffffffffffffffffffffffff16815250509050806000015181602001518260400151836060015184608001518560a001518660c00151859550839350829250819150975097509750975097509750975050919395979092949650565b60008060008681526020019081526020016000209050838160010190805190602001906116d4929190611993565b50828160020181905550818160030190805190602001906116f6929190611993565b507f6ee5a01c947af85f1172257cad5e65be06ddf70bd9860706ae96207eed96f78b856040516117269190612640565b60405180910390a15050505050565b600060026000888152602001908152602001600020905085816001019080519060200190611764929190611993565b5084816002018190555083816003019080519060200190611786929190611993565b508281600401908051906020019061179f929190611993565b50818160050190805190602001906117b8929190611993565b507f57fed3c30b2b80ea60c400f26e61eda5bb9950b57589f063ca16f6af1f508a2e876040516117e891906125b6565b60405180910390a150505050505050565b6000806060600080611809611b2d565b6004600088815260200190815260200160002060a060405190810160405290816000820154815260200160018201548152602001600282018054600181600116156101000203166002900480601f0160208091040260200160405190810160405280929190818152602001828054600181600116156101000203166002900480156118d55780601f106118aa576101008083540402835291602001916118d5565b820191906000526020600020905b8154815290600101906020018083116118b857829003601f168201915b50505050508152602001600382015481526020016004820160009054906101000a900473ffffffffffffffffffffffffffffffffffffffff1673ffffffffffffffffffffffffffffffffffffffff1673ffffffffffffffffffffffffffffffffffffffff1681525050905080600001518160200151826040015183606001518460800151829250955095509550955095505091939590929450565b60058181548110151561197f57fe5b906000526020600020016000915090505481565b828054600181600116156101000203166002900490600052602060002090601f016020900481019282601f106119d457805160ff1916838001178555611a02565b82800160010185558215611a02579182015b82811115611a015782518255916020019190600101906119e6565b5b509050611a0f9190611b73565b5090565b828054600181600116156101000203166002900490600052602060002090601f016020900481019282601f10611a5457805160ff1916838001178555611a82565b82800160010185558215611a82579182015b82811115611a81578251825591602001919060010190611a66565b5b509050611a8f9190611b73565b5090565b60a06040519081016040528060008152602001606081526020016000815260200160608152602001600073ffffffffffffffffffffffffffffffffffffffff1681525090565b60e060405190810160405280600081526020016060815260200160008152602001606081526020016060815260200160608152602001600073ffffffffffffffffffffffffffffffffffffffff1681525090565b60a06040519081016040528060008152602001600081526020016060815260200160008152602001600073ffffffffffffffffffffffffffffffffffffffff1681525090565b611b9591905b80821115611b91576000816000905550600101611b79565b5090565b90565b600082601f8301121515611bab57600080fd5b8135611bbe611bb982612751565b612724565b91508082526020830160208301858383011115611bda57600080fd5b611be5838284612848565b50505092915050565b6000611bfa823561283e565b905092915050565b600080600060608486031215611c1757600080fd5b600084013567ffffffffffffffff811115611c3157600080fd5b611c3d86828701611b98565b9350506020611c4e86828701611bee565b925050604084013567ffffffffffffffff811115611c6b57600080fd5b611c7786828701611b98565b9150509250925092565b600080600080600060a08688031215611c9957600080fd5b600086013567ffffffffffffffff811115611cb357600080fd5b611cbf88828901611b98565b9550506020611cd088828901611bee565b945050604086013567ffffffffffffffff811115611ced57600080fd5b611cf988828901611b98565b935050606086013567ffffffffffffffff811115611d1657600080fd5b611d2288828901611b98565b925050608086013567ffffffffffffffff811115611d3f57600080fd5b611d4b88828901611b98565b9150509295509295909350565b600060208284031215611d6a57600080fd5b6000611d7884828501611bee565b91505092915050565b600080600060608486031215611d9657600080fd5b6000611da486828701611bee565b935050602084013567ffffffffffffffff811115611dc157600080fd5b611dcd86828701611b98565b9250506040611dde86828701611bee565b9150509250925092565b60008060008060808587031215611dfe57600080fd5b6000611e0c87828801611bee565b945050602085013567ffffffffffffffff811115611e2957600080fd5b611e3587828801611b98565b9350506040611e4687828801611bee565b925050606085013567ffffffffffffffff811115611e6357600080fd5b611e6f87828801611b98565b91505092959194509250565b60008060008060008060c08789031215611e9457600080fd5b6000611ea289828a01611bee565b965050602087013567ffffffffffffffff811115611ebf57600080fd5b611ecb89828a01611b98565b9550506040611edc89828a01611bee565b945050606087013567ffffffffffffffff811115611ef957600080fd5b611f0589828a01611b98565b935050608087013567ffffffffffffffff811115611f2257600080fd5b611f2e89828a01611b98565b92505060a087013567ffffffffffffffff811115611f4b57600080fd5b611f5789828a01611b98565b9150509295509295509295565b60008060008060808587031215611f7a57600080fd5b6000611f8887828801611bee565b9450506020611f9987828801611bee565b935050604085013567ffffffffffffffff811115611fb657600080fd5b611fc287828801611b98565b9250506060611fd387828801611bee565b91505092959194509250565b611fe881612802565b82525050565b6000611ff9826127a4565b80845260208401935061200b8361277d565b60005b8281101561203d57612021868351611fdf565b61202a826127db565b915060208601955060018101905061200e565b50849250505092915050565b6000612054826127af565b8084526020840193508360208202850161206d8561278a565b60005b848110156120a6578383038852612088838351612148565b9250612093826127e8565b9150602088019750600181019050612070565b508196508694505050505092915050565b60006120c2826127ba565b8084526020840193506120d483612797565b60005b82811015612106576120ea868351612314565b6120f3826127f5565b91506020860195506001810190506120d7565b50849250505092915050565b600061211d826127d0565b808452612131816020860160208601612857565b61213a8161288a565b602085010191505092915050565b6000612153826127c5565b808452612167816020860160208601612857565b6121708161288a565b602085010191505092915050565b6000602382527f4c6963697461c3a7c3a36f20617475616c697a61646120636f6d20737563636560208301527f73736f00000000000000000000000000000000000000000000000000000000006040830152606082019050919050565b6000602282527f4c6963697461c3a7c3a36f206361646173747261646120636f6d20737563657360208301527f736f0000000000000000000000000000000000000000000000000000000000006040830152606082019050919050565b6000601e82527f456d7072657361206361646173747261646120636f6d207375636573736f00006020830152604082019050919050565b6000601f82527f456d707265736120617475616c697a61646120636f6d20737563636573736f006020830152604082019050919050565b6000601e82527f4f666572746120617475616c697a61646120636f6d20737563636573736f00006020830152604082019050919050565b6000601d82527f4f6665727461206361646173747261646120636f6d207375636573736f0000006020830152604082019050919050565b61231d81612834565b82525050565b600060a082019050818103600083015261233d81886120b7565b905081810360208301526123518187612049565b9050818103604083015261236581866120b7565b905081810360608301526123798185612049565b9050818103608083015261238d8184611fee565b90509695505050505050565b600060e08201905081810360008301526123b3818a6120b7565b905081810360208301526123c78189612049565b905081810360408301526123db81886120b7565b905081810360608301526123ef8187612049565b905081810360808301526124038186612049565b905081810360a08301526124178185612049565b905081810360c083015261242b8184611fee565b905098975050505050505050565b600060a082019050818103600083015261245381886120b7565b9050818103602083015261246781876120b7565b9050818103604083015261247b8186612049565b9050818103606083015261248f81856120b7565b905081810360808301526124a38184611fee565b90509695505050505050565b60006020820190506124c46000830184612314565b92915050565b600060a0820190506124df6000830188612314565b81810360208301526124f18187612112565b90506125006040830186612314565b81810360608301526125128185612112565b90506125216080830184611fdf565b9695505050505050565b600060e082019050612540600083018a612314565b81810360208301526125528189612112565b90506125616040830188612314565b81810360608301526125738187612112565b905081810360808301526125878186612112565b905081810360a083015261259b8185612112565b90506125aa60c0830184611fdf565b98975050505050505050565b60006040820190506125cb6000830184612314565b81810360208301526125dc8161217e565b905092915050565b60006040820190506125f96000830184612314565b818103602083015261260a816121db565b905092915050565b60006040820190506126276000830184612314565b818103602083015261263881612238565b905092915050565b60006040820190506126556000830184612314565b81810360208301526126668161226f565b905092915050565b60006040820190506126836000830184612314565b8181036020830152612694816122a6565b905092915050565b60006040820190506126b16000830184612314565b81810360208301526126c2816122dd565b905092915050565b600060a0820190506126df6000830188612314565b6126ec6020830187612314565b81810360408301526126fe8186612112565b905061270d6060830185612314565b61271a6080830184611fdf565b9695505050505050565b6000604051905081810181811067ffffffffffffffff8211171561274757600080fd5b8060405250919050565b600067ffffffffffffffff82111561276857600080fd5b601f19601f8301169050602081019050919050565b6000602082019050919050565b6000602082019050919050565b6000602082019050919050565b600081519050919050565b600081519050919050565b600081519050919050565b600081519050919050565b600081519050919050565b6000602082019050919050565b6000602082019050919050565b6000602082019050919050565b600061280d82612814565b9050919050565b600073ffffffffffffffffffffffffffffffffffffffff82169050919050565b6000819050919050565b6000819050919050565b82818337600083830152505050565b60005b8381101561287557808201518184015260208101905061285a565b83811115612884576000848401525b50505050565b6000601f19601f830116905091905056fea265627a7a72305820f1c1959476b264813d01cfea0ef2cc5888a8e7d2eaa1cdc9ea90650f0c2544316c6578706572696d656e74616cf50037",
  "source": "pragma solidity ^0.5.0;\npragma experimental ABIEncoderV2;\n\ncontract LicitacaoContract {\n\n    event empresaRegistered(uint _empresaId, string _msg);\n\n    event empresaUpdated(uint _empresaId, string _msg);\n\n    event licitacaoRegistered(uint _licitacaoId, string _msg);\n\n    event licitacaoUpdated(uint _licitacaoId, string _msg);\n\n    event ofertaRegistered(uint _licitacaoId, string _msg);\n\n    event ofertaUpdated(uint _licitacaoId, string _msg);\n\n    struct Empresa {\n        uint id;\n        string razaoSocial;\n        uint cnpj;\n        string telefone;\n        address owner;\n    }\n\n    struct Licitacao {\n        uint id;\n        string titulo;\n        uint codigo;\n        string dataInicio;\n        string dataFim;\n        string status;\n        address owner;\n    }\n\n    struct Oferta {\n        uint id;\n        uint licitacaoId;\n        string data;\n        uint valor;\n        address owner;\n    }\n\n    mapping (uint => Empresa) empresas;\n    uint[] public empresasIds;\n\n    mapping (uint => Licitacao) licitacoes;\n    uint[] public licitacoesIds;\n\n    mapping (uint => Oferta) ofertas;\n    uint[] public ofertasIds;\n\n    uint256 private empresaId = 0;\n    uint256 private licitacaoId = 0;\n    uint256 private ofertaId = 0;\n\n    function adicionarEmpresa(string memory _razaoSocial, uint _cnpj, string memory _telefone) public {\n\n        empresas[empresaId] = Empresa(empresaId, _razaoSocial, _cnpj, _telefone, msg.sender);\n        empresasIds.push(empresaId);\n        empresaId++;\n        emit empresaRegistered(empresaId - 1, \"Empresa cadastrada com sucesso\");\n    }\n\n    function alterarEmpresa(uint _id, string memory _razaoSocial, uint _cnpj, string memory _telefone) public {\n\n        Empresa storage emp = empresas[_id];\n\n        emp.razaoSocial = _razaoSocial;\n        emp.cnpj = _cnpj;\n        emp.telefone = _telefone;\n\n        emit empresaUpdated(_id, \"Empresa atualizada com successo\");\n    }\n\n    function empresaInfo(uint _id) public view\n        returns(\n            uint,\n            string memory,\n            uint,\n            string memory,\n            address\n        ) {\n\n            Empresa memory empresa = empresas[_id];\n\n            return (\n                empresa.id,\n                empresa.razaoSocial,\n                empresa.cnpj,\n                empresa.telefone,\n                empresa.owner\n            );\n    }\n\n    function listarEmpresas() public view returns(uint[] memory, string[] memory, uint[] memory, string[] memory, address[] memory) {\n\n        uint[] memory ids = empresasIds;\n\n        uint[] memory idsEmpresas = new uint[](ids.length);\n        string[] memory razoesSociais = new string[](ids.length);\n        uint[] memory cnpjs = new uint[](ids.length);\n        string[] memory telefones = new string[](ids.length);\n        address[] memory owners = new address[](ids.length);\n\n        for (uint i = 0; i < ids.length; i++) {\n            (idsEmpresas[i], razoesSociais[i], cnpjs[i], telefones[i], owners[i]) = empresaInfo(i);\n        }\n\n        return (idsEmpresas, razoesSociais, cnpjs, telefones, owners);\n    }\n\n    function adicionarLicitacao(\n        string memory _titulo, uint _codigo, string memory _dataInicio, string memory _dataFim, string memory _status\n        ) public {\n\n        licitacoes[licitacaoId] = Licitacao(licitacaoId, _titulo, _codigo, _dataInicio, _dataFim, _status, msg.sender);\n        licitacoesIds.push(licitacaoId);\n        licitacaoId++;\n        \n        emit licitacaoRegistered(licitacaoId - 1, \"Licitao cadastrada com sucesso\");\n    }\n\n    function alterarLicitacao(\n        uint _id, string memory _titulo, uint _codigo, string memory _dataInicio, string memory _dataFim, string memory _status\n        ) public {\n\n        Licitacao storage licitacao = licitacoes[_id];\n\n        licitacao.titulo = _titulo;\n        licitacao.codigo = _codigo;\n        licitacao.dataInicio = _dataInicio;\n        licitacao.dataFim = _dataFim;\n        licitacao.status = _status;\n\n        emit licitacaoUpdated(_id, \"Licitao atualizada com successo\");\n    }\n\n    function licitacaoInfo(uint _id) public view\n        returns(\n            uint,\n            string memory,\n            uint,\n            string memory,\n            string memory,\n            string memory,\n            address\n        ) {\n\n            Licitacao memory licitacao = licitacoes[_id];\n\n            return (\n                licitacao.id,\n                licitacao.titulo,\n                licitacao.codigo,\n                licitacao.dataInicio,\n                licitacao.dataFim,\n                licitacao.status,\n                licitacao.owner\n            );\n    }\n\n    function listarLicitacoes() public view returns(\n        uint[] memory, string[] memory, uint[] memory, string[] memory, string[] memory, string[] memory, address[] memory\n        ) {\n\n        uint[] memory ids = licitacoesIds;\n\n        uint[] memory idsLicitacoes = new uint[](ids.length);\n        string[] memory titulos = new string[](ids.length);\n        uint[] memory codigos = new uint[](ids.length);\n        string[] memory datasInicio = new string[](ids.length);\n        string[] memory datasFim = new string[](ids.length);\n        string[] memory status = new string[](ids.length);\n        address[] memory owners = new address[](ids.length);\n\n        for (uint i = 0; i < ids.length; i++) {\n            (idsLicitacoes[i], titulos[i], codigos[i], datasInicio[i], datasFim[i], status[i], owners[i]) = licitacaoInfo(i);\n        }\n\n        return (idsLicitacoes, titulos, codigos, datasInicio, datasFim, status, owners);\n    }\n\n    function adicionarOferta(uint _licitacaoId, string memory _data, uint _valor) public {\n\n        ofertas[ofertaId] = Oferta(ofertaId, _licitacaoId, _data, _valor, msg.sender);\n        ofertasIds.push(ofertaId);\n        ofertaId++;\n        emit ofertaRegistered(ofertaId - 1, \"Oferta cadastrada com sucesso\");\n    }\n\n    function alterarOferta(uint _id, uint _licitacaoId, string memory _data, uint _valor) public {\n\n        Oferta storage oferta = ofertas[_id];\n\n        oferta.licitacaoId = _licitacaoId;\n        oferta.data = _data;\n        oferta.valor = _valor;\n\n        emit ofertaUpdated(_id, \"Oferta atualizada com successo\");\n    }\n\n    function ofertaInfo(uint _id) public view\n        returns(\n            uint,\n            uint,\n            string memory,\n            uint,\n            address\n        ) {\n\n            Oferta memory oferta = ofertas[_id];\n\n            return (\n                oferta.id,\n                oferta.licitacaoId,\n                oferta.data,\n                oferta.valor,\n                oferta.owner\n            );\n    }\n\n    function listarOfertas() public view returns(uint[] memory, uint[] memory, string[] memory, uint[] memory, address[] memory) {\n\n        uint[] memory ids = ofertasIds;\n\n        uint[] memory idsOfertas = new uint[](ids.length);\n        uint[] memory licitacoesIds = new uint[](ids.length);\n        string[] memory datas = new string[](ids.length);\n        uint[] memory valores = new uint[](ids.length);\n        address[] memory owners = new address[](ids.length);\n\n        for (uint i = 0; i < ids.length; i++) {\n            (idsOfertas[i], licitacoesIds[i], datas[i], valores[i], owners[i]) = ofertaInfo(i);\n        }\n\n        return (idsOfertas, licitacoesIds, datas, valores, owners);\n    }\n\n}",
  "sourcePath": "/home/alenkaleb/Documentos/Implementaes Cases de Blockchain/iesb-blockchain/dapp/contracts/LicitacaoContract.sol",
  "compiler": {
    "name": "solc",
    "version": "0.5.0+commit.1d4f565a.Emscripten.clang"
  },
  "schemaVersion": "3.1.0",
  "updatedAt": "2020-06-08T11:56:40.889Z",
  "networkType": "ethereum",
  "devdoc": {
    "methods": {}
  },
  "userdoc": {
    "methods": {}
  }
}