{
  "contractName": "LicitacaoContract",
  "abi": [
    {
      "constant": true,
      "inputs": [
        {
          "name": "",
          "type": "uint256"
        }
      ],
      "name": "empresasIds",
      "outputs": [
        {
          "name": "",
          "type": "uint256"
        }
      ],
      "payable": false,
      "stateMutability": "view",
      "type": "function"
    },
    {
      "constant": true,
      "inputs": [
        {
          "name": "",
          "type": "uint256"
        }
      ],
      "name": "licitacoesIds",
      "outputs": [
        {
          "name": "",
          "type": "uint256"
        }
      ],
      "payable": false,
      "stateMutability": "view",
      "type": "function"
    },
    {
      "constant": true,
      "inputs": [
        {
          "name": "",
          "type": "uint256"
        }
      ],
      "name": "ofertasIds",
      "outputs": [
        {
          "name": "",
          "type": "uint256"
        }
      ],
      "payable": false,
      "stateMutability": "view",
      "type": "function"
    },
    {
      "anonymous": false,
      "inputs": [
        {
          "indexed": false,
          "name": "_empresaId",
          "type": "uint256"
        },
        {
          "indexed": false,
          "name": "_msg",
          "type": "string"
        }
      ],
      "name": "empresaRegistered",
      "type": "event"
    },
    {
      "anonymous": false,
      "inputs": [
        {
          "indexed": false,
          "name": "_empresaId",
          "type": "uint256"
        },
        {
          "indexed": false,
          "name": "_msg",
          "type": "string"
        }
      ],
      "name": "empresaUpdated",
      "type": "event"
    },
    {
      "anonymous": false,
      "inputs": [
        {
          "indexed": false,
          "name": "_licitacaoId",
          "type": "uint256"
        },
        {
          "indexed": false,
          "name": "_msg",
          "type": "string"
        }
      ],
      "name": "licitacaoRegistered",
      "type": "event"
    },
    {
      "anonymous": false,
      "inputs": [
        {
          "indexed": false,
          "name": "_licitacaoId",
          "type": "uint256"
        },
        {
          "indexed": false,
          "name": "_msg",
          "type": "string"
        }
      ],
      "name": "licitacaoUpdated",
      "type": "event"
    },
    {
      "anonymous": false,
      "inputs": [
        {
          "indexed": false,
          "name": "_licitacaoId",
          "type": "uint256"
        },
        {
          "indexed": false,
          "name": "_msg",
          "type": "string"
        }
      ],
      "name": "ofertaRegistered",
      "type": "event"
    },
    {
      "anonymous": false,
      "inputs": [
        {
          "indexed": false,
          "name": "_licitacaoId",
          "type": "uint256"
        },
        {
          "indexed": false,
          "name": "_msg",
          "type": "string"
        }
      ],
      "name": "ofertaUpdated",
      "type": "event"
    },
    {
      "constant": false,
      "inputs": [
        {
          "name": "_razaoSocial",
          "type": "string"
        },
        {
          "name": "_cnpj",
          "type": "uint256"
        },
        {
          "name": "_telefone",
          "type": "string"
        }
      ],
      "name": "adicionarEmpresa",
      "outputs": [],
      "payable": false,
      "stateMutability": "nonpayable",
      "type": "function"
    },
    {
      "constant": false,
      "inputs": [
        {
          "name": "_id",
          "type": "uint256"
        },
        {
          "name": "_razaoSocial",
          "type": "string"
        },
        {
          "name": "_cnpj",
          "type": "uint256"
        },
        {
          "name": "_telefone",
          "type": "string"
        }
      ],
      "name": "alterarEmpresa",
      "outputs": [],
      "payable": false,
      "stateMutability": "nonpayable",
      "type": "function"
    },
    {
      "constant": true,
      "inputs": [
        {
          "name": "_id",
          "type": "uint256"
        }
      ],
      "name": "empresaInfo",
      "outputs": [
        {
          "name": "",
          "type": "uint256"
        },
        {
          "name": "",
          "type": "string"
        },
        {
          "name": "",
          "type": "uint256"
        },
        {
          "name": "",
          "type": "string"
        },
        {
          "name": "",
          "type": "address"
        }
      ],
      "payable": false,
      "stateMutability": "view",
      "type": "function"
    },
    {
      "constant": true,
      "inputs": [],
      "name": "listarEmpresas",
      "outputs": [
        {
          "name": "",
          "type": "uint256[]"
        },
        {
          "name": "",
          "type": "string[]"
        },
        {
          "name": "",
          "type": "uint256[]"
        },
        {
          "name": "",
          "type": "string[]"
        },
        {
          "name": "",
          "type": "address[]"
        }
      ],
      "payable": false,
      "stateMutability": "view",
      "type": "function"
    },
    {
      "constant": false,
      "inputs": [
        {
          "name": "_titulo",
          "type": "string"
        },
        {
          "name": "_codigo",
          "type": "uint256"
        },
        {
          "name": "_dataInicio",
          "type": "string"
        },
        {
          "name": "_dataFim",
          "type": "string"
        },
        {
          "name": "_status",
          "type": "string"
        }
      ],
      "name": "adicionarLicitacao",
      "outputs": [],
      "payable": false,
      "stateMutability": "nonpayable",
      "type": "function"
    },
    {
      "constant": false,
      "inputs": [
        {
          "name": "_id",
          "type": "uint256"
        },
        {
          "name": "_titulo",
          "type": "string"
        },
        {
          "name": "_codigo",
          "type": "uint256"
        },
        {
          "name": "_dataInicio",
          "type": "string"
        },
        {
          "name": "_dataFim",
          "type": "string"
        },
        {
          "name": "_status",
          "type": "string"
        }
      ],
      "name": "alterarLicitacao",
      "outputs": [],
      "payable": false,
      "stateMutability": "nonpayable",
      "type": "function"
    },
    {
      "constant": true,
      "inputs": [
        {
          "name": "_id",
          "type": "uint256"
        }
      ],
      "name": "licitacaoInfo",
      "outputs": [
        {
          "name": "",
          "type": "uint256"
        },
        {
          "name": "",
          "type": "string"
        },
        {
          "name": "",
          "type": "uint256"
        },
        {
          "name": "",
          "type": "string"
        },
        {
          "name": "",
          "type": "string"
        },
        {
          "name": "",
          "type": "string"
        },
        {
          "name": "",
          "type": "address"
        }
      ],
      "payable": false,
      "stateMutability": "view",
      "type": "function"
    },
    {
      "constant": true,
      "inputs": [],
      "name": "listarLicitacoes",
      "outputs": [
        {
          "name": "",
          "type": "uint256[]"
        },
        {
          "name": "",
          "type": "string[]"
        },
        {
          "name": "",
          "type": "uint256[]"
        },
        {
          "name": "",
          "type": "string[]"
        },
        {
          "name": "",
          "type": "string[]"
        },
        {
          "name": "",
          "type": "string[]"
        },
        {
          "name": "",
          "type": "address[]"
        }
      ],
      "payable": false,
      "stateMutability": "view",
      "type": "function"
    },
    {
      "constant": false,
      "inputs": [
        {
          "name": "_empresaId",
          "type": "uint256"
        },
        {
          "name": "_licitacaoId",
          "type": "uint256"
        },
        {
          "name": "_data",
          "type": "string"
        },
        {
          "name": "_valor",
          "type": "uint256"
        }
      ],
      "name": "adicionarOferta",
      "outputs": [],
      "payable": false,
      "stateMutability": "nonpayable",
      "type": "function"
    },
    {
      "constant": false,
      "inputs": [
        {
          "name": "_id",
          "type": "uint256"
        },
        {
          "name": "_empresaId",
          "type": "uint256"
        },
        {
          "name": "_licitacaoId",
          "type": "uint256"
        },
        {
          "name": "_data",
          "type": "string"
        },
        {
          "name": "_valor",
          "type": "uint256"
        }
      ],
      "name": "alterarOferta",
      "outputs": [],
      "payable": false,
      "stateMutability": "nonpayable",
      "type": "function"
    },
    {
      "constant": true,
      "inputs": [
        {
          "name": "_id",
          "type": "uint256"
        }
      ],
      "name": "ofertaInfo",
      "outputs": [
        {
          "name": "",
          "type": "uint256"
        },
        {
          "components": [
            {
              "name": "id",
              "type": "uint256"
            },
            {
              "name": "razaoSocial",
              "type": "string"
            },
            {
              "name": "cnpj",
              "type": "uint256"
            },
            {
              "name": "telefone",
              "type": "string"
            },
            {
              "name": "owner",
              "type": "address"
            }
          ],
          "name": "",
          "type": "tuple"
        },
        {
          "components": [
            {
              "name": "id",
              "type": "uint256"
            },
            {
              "name": "titulo",
              "type": "string"
            },
            {
              "name": "codigo",
              "type": "uint256"
            },
            {
              "name": "dataInicio",
              "type": "string"
            },
            {
              "name": "dataFim",
              "type": "string"
            },
            {
              "name": "status",
              "type": "string"
            },
            {
              "name": "owner",
              "type": "address"
            }
          ],
          "name": "",
          "type": "tuple"
        },
        {
          "name": "",
          "type": "string"
        },
        {
          "name": "",
          "type": "uint256"
        },
        {
          "name": "",
          "type": "address"
        }
      ],
      "payable": false,
      "stateMutability": "view",
      "type": "function"
    },
    {
      "constant": true,
      "inputs": [],
      "name": "listarOfertas",
      "outputs": [
        {
          "name": "",
          "type": "uint256[]"
        },
        {
          "components": [
            {
              "name": "id",
              "type": "uint256"
            },
            {
              "name": "razaoSocial",
              "type": "string"
            },
            {
              "name": "cnpj",
              "type": "uint256"
            },
            {
              "name": "telefone",
              "type": "string"
            },
            {
              "name": "owner",
              "type": "address"
            }
          ],
          "name": "",
          "type": "tuple[]"
        },
        {
          "components": [
            {
              "name": "id",
              "type": "uint256"
            },
            {
              "name": "titulo",
              "type": "string"
            },
            {
              "name": "codigo",
              "type": "uint256"
            },
            {
              "name": "dataInicio",
              "type": "string"
            },
            {
              "name": "dataFim",
              "type": "string"
            },
            {
              "name": "status",
              "type": "string"
            },
            {
              "name": "owner",
              "type": "address"
            }
          ],
          "name": "",
          "type": "tuple[]"
        },
        {
          "name": "",
          "type": "string[]"
        },
        {
          "name": "",
          "type": "uint256[]"
        },
        {
          "name": "",
          "type": "address[]"
        }
      ],
      "payable": false,
      "stateMutability": "view",
      "type": "function"
    }
  ],
  "bytecode": "0x608060405260006006556000600755600060085534801561001f57600080fd5b50613df98061002f6000396000f3fe6080604052600436106100db576000357c0100000000000000000000000000000000000000000000000000000000900463ffffffff168063383358d2146100e057806339427a8014610121578063457f279514610152578063460fd6041461018157806356b40609146101aa5780635cc0a659146101d35780635cca8bb0146102105780635fffc6881461024d57806366104550146102765780637a2fc095146102a6578063806cae65146102e95780638223cfe4146103125780638f41493a1461033b578063ee44391614610364578063f8e45cda146103a6575b600080fd5b3480156100ec57600080fd5b5061010760048036036101029190810190612a1b565b6103e3565b604051610118959493929190613988565b60405180910390f35b34801561012d57600080fd5b506101366105f6565b60405161014997969594939291906136c2565b60405180910390f35b34801561015e57600080fd5b50610167610920565b60405161017895949392919061364c565b60405180910390f35b34801561018d57600080fd5b506101a860048036036101a39190810190612bc0565b610b8d565b005b3480156101b657600080fd5b506101d160048036036101cc9190810190612944565b610e10565b005b3480156101df57600080fd5b506101fa60048036036101f59190810190612a1b565b611125565b604051610207919061396d565b60405180910390f35b34801561021c57600080fd5b5061023760048036036102329190810190612a1b565b611148565b604051610244919061396d565b60405180910390f35b34801561025957600080fd5b50610274600480360361026f91908101906128c5565b61116b565b005b34801561028257600080fd5b5061028b6113ab565b60405161029d96959493929190613762565b60405180910390f35b3480156102b257600080fd5b506102cd60048036036102c89190810190612a1b565b611683565b6040516102e097969594939291906139e9565b60405180910390f35b3480156102f557600080fd5b50610310600480360361030b9190810190612a44565b6119f4565b005b34801561031e57600080fd5b5061033960048036036103349190810190612c3b565b611b56565b005b34801561034757600080fd5b50610362600480360361035d9190810190612ad7565b611cf7565b005b34801561037057600080fd5b5061038b60048036036103869190810190612a1b565b611f1a565b60405161039d96959493929190613b88565b60405180910390f35b3480156103b257600080fd5b506103cd60048036036103c89190810190612a1b565b612592565b6040516103da919061396d565b60405180910390f35b600060606000606060006103f56125b5565b60008088815260200190815260200160002060a0604051908101604052908160008201548152602001600182018054600181600116156101000203166002900480601f0160208091040260200160405190810160405280929190818152602001828054600181600116156101000203166002900480156104b65780601f1061048b576101008083540402835291602001916104b6565b820191906000526020600020905b81548152906001019060200180831161049957829003601f168201915b5050505050815260200160028201548152602001600382018054600181600116156101000203166002900480601f0160208091040260200160405190810160405280929190818152602001828054600181600116156101000203166002900480156105625780601f1061053757610100808354040283529160200191610562565b820191906000526020600020905b81548152906001019060200180831161054557829003601f168201915b505050505081526020016004820160009054906101000a900473ffffffffffffffffffffffffffffffffffffffff1673ffffffffffffffffffffffffffffffffffffffff1673ffffffffffffffffffffffffffffffffffffffff1681525050905080600001518160200151826040015183606001518460800151839350819150955095509550955095505091939590929450565b606080606080606080606080600380548060200260200160405190810160405280929190818152602001828054801561064e57602002820191906000526020600020905b81548152602001906001019080831161063a575b50505050509050606081516040519080825280602002602001820160405280156106875781602001602082028038833980820191505090505b509050606082516040519080825280602002602001820160405280156106c157816020015b60608152602001906001900390816106ac5790505b509050606083516040519080825280602002602001820160405280156106f65781602001602082028038833980820191505090505b5090506060845160405190808252806020026020018201604052801561073057816020015b606081526020019060019003908161071b5790505b5090506060855160405190808252806020026020018201604052801561076a57816020015b60608152602001906001900390816107555790505b509050606086516040519080825280602002602001820160405280156107a457816020015b606081526020019060019003908161078f5790505b509050606087516040519080825280602002602001820160405280156107d95781602001602082028038833980820191505090505b50905060008090505b88518110156108f9576107f481611683565b8595508393508292508191508e8881518110151561080e57fe5b9060200190602002018e8981518110151561082557fe5b9060200190602002018e8a81518110151561083c57fe5b9060200190602002018e8b81518110151561085357fe5b9060200190602002018e8c81518110151561086a57fe5b9060200190602002018e8d81518110151561088157fe5b9060200190602002018e8e81518110151561089857fe5b9060200190602002018773ffffffffffffffffffffffffffffffffffffffff1673ffffffffffffffffffffffffffffffffffffffff1681525087905287905287905287815250879052878152505050505050505080806001019150506107e2565b50868686868686869e509e509e509e509e509e509e50505050505050505090919293949596565b606080606080606080600180548060200260200160405190810160405280929190818152602001828054801561097557602002820191906000526020600020905b815481526020019060010190808311610961575b50505050509050606081516040519080825280602002602001820160405280156109ae5781602001602082028038833980820191505090505b509050606082516040519080825280602002602001820160405280156109e857816020015b60608152602001906001900390816109d35790505b50905060608351604051908082528060200260200182016040528015610a1d5781602001602082028038833980820191505090505b50905060608451604051908082528060200260200182016040528015610a5757816020015b6060815260200190600190039081610a425790505b50905060608551604051908082528060200260200182016040528015610a8c5781602001602082028038833980820191505090505b50905060008090505b8651811015610b7057610aa7816103e3565b8393508191508a86815181101515610abb57fe5b9060200190602002018a87815181101515610ad257fe5b9060200190602002018a88815181101515610ae957fe5b9060200190602002018a89815181101515610b0057fe5b9060200190602002018a8a815181101515610b1757fe5b9060200190602002018573ffffffffffffffffffffffffffffffffffffffff1673ffffffffffffffffffffffffffffffffffffffff16815250859052858152508590528581525050505050508080600101915050610a95565b5084848484849a509a509a509a509a505050505050509091929394565b60008310151515610bd3576040517f08c379a0000000000000000000000000000000000000000000000000000000008152600401610bca9061392d565b60405180910390fd5b60008410151515610c19576040517f08c379a0000000000000000000000000000000000000000000000000000000008152600401610c10906137ed565b60405180910390fd5b600081111515610c5e576040517f08c379a0000000000000000000000000000000000000000000000000000000008152600401610c559061386d565b60405180910390fd5b600a8251141515610ca4576040517f08c379a0000000000000000000000000000000000000000000000000000000008152600401610c9b906138ed565b60405180910390fd5b60c06040519081016040528060085481526020018581526020018481526020018381526020018281526020013373ffffffffffffffffffffffffffffffffffffffff168152506004600060085481526020019081526020016000206000820151816000015560208201518160010155604082015181600201556060820151816003019080519060200190610d399291906125fb565b506080820151816004015560a08201518160050160006101000a81548173ffffffffffffffffffffffffffffffffffffffff021916908373ffffffffffffffffffffffffffffffffffffffff160217905550905050600560085490806001815401808255809150509060018203906000526020600020016000909192909190915055506008600081548092919060010191905055507f2eca47e638275eaf04a12dc83a41d7e38b911be808e29a72a1368a11c86bd659600160085403604051610e029190613b5a565b60405180910390a150505050565b6001855110151515610e57576040517f08c379a0000000000000000000000000000000000000000000000000000000008152600401610e4e9061384d565b60405180910390fd5b600084111515610e9c576040517f08c379a0000000000000000000000000000000000000000000000000000000008152600401610e939061388d565b60405180910390fd5b600a8351141515610ee2576040517f08c379a0000000000000000000000000000000000000000000000000000000008152600401610ed99061382d565b60405180910390fd5b600a8251141515610f28576040517f08c379a0000000000000000000000000000000000000000000000000000000008152600401610f1f906138cd565b60405180910390fd5b6001815110151515610f6f576040517f08c379a0000000000000000000000000000000000000000000000000000000008152600401610f66906138ad565b60405180910390fd5b60e06040519081016040528060075481526020018681526020018581526020018481526020018381526020018281526020013373ffffffffffffffffffffffffffffffffffffffff16815250600260006007548152602001908152602001600020600082015181600001556020820151816001019080519060200190610ff69291906125fb565b5060408201518160020155606082015181600301908051906020019061101d9291906125fb565b50608082015181600401908051906020019061103a9291906125fb565b5060a08201518160050190805190602001906110579291906125fb565b5060c08201518160060160006101000a81548173ffffffffffffffffffffffffffffffffffffffff021916908373ffffffffffffffffffffffffffffffffffffffff160217905550905050600360075490806001815401808255809150509060018203906000526020600020016000909192909190915055506007600081548092919060010191905055507f7e4d646cb32a51fc6ccdc44b3e198cabb1c7467c92291f92bf232518c2713e4d6001600754036040516111169190613aa2565b60405180910390a15050505050565b60018181548110151561113457fe5b906000526020600020016000915090505481565b60038181548110151561115757fe5b906000526020600020016000915090505481565b60018351101515156111b2576040517f08c379a00000000000000000000000000000000000000000000000000000000081526004016111a99061380d565b60405180910390fd5b6000821115156111f7576040517f08c379a00000000000000000000000000000000000000000000000000000000081526004016111ee9061394d565b60405180910390fd5b600b81511015151561123e576040517f08c379a00000000000000000000000000000000000000000000000000000000081526004016112359061390d565b60405180910390fd5b60a06040519081016040528060065481526020018481526020018381526020018281526020013373ffffffffffffffffffffffffffffffffffffffff1681525060008060065481526020019081526020016000206000820151816000015560208201518160010190805190602001906112b89291906125fb565b506040820151816002015560608201518160030190805190602001906112df9291906125fb565b5060808201518160040160006101000a81548173ffffffffffffffffffffffffffffffffffffffff021916908373ffffffffffffffffffffffffffffffffffffffff160217905550905050600160065490806001815401808255809150509060018203906000526020600020016000909192909190915055506006600081548092919060010191905055507fdcb0928022a6ac578b58f5c1c28b05dbc35b0469fbba2599f268963ff71a78a560016006540360405161139e9190613ad0565b60405180910390a1505050565b6060806060806060806060600580548060200260200160405190810160405280929190818152602001828054801561140257602002820191906000526020600020905b8154815260200190600101908083116113ee575b505050505090506060815160405190808252806020026020018201604052801561143b5781602001602082028038833980820191505090505b5090506060825160405190808252806020026020018201604052801561147b57816020015b61146861267b565b8152602001906001900390816114605790505b509050606083516040519080825280602002602001820160405280156114bb57816020015b6114a86126cf565b8152602001906001900390816114a05790505b509050606084516040519080825280602002602001820160405280156114f557816020015b60608152602001906001900390816114e05790505b5090506060855160405190808252806020026020018201604052801561152a5781602001602082028038833980820191505090505b5090506060865160405190808252806020026020018201604052801561155f5781602001602082028038833980820191505090505b50905060008090505b87518110156116615761157a81611f1a565b8494508393508292508c8781518110151561159157fe5b9060200190602002018b888151811015156115a857fe5b9060200190602002018d898151811015156115bf57fe5b9060200190602002018c8a8151811015156115d657fe5b9060200190602002018c8b8151811015156115ed57fe5b9060200190602002018c8c81518110151561160457fe5b9060200190602002018673ffffffffffffffffffffffffffffffffffffffff1673ffffffffffffffffffffffffffffffffffffffff1681525086815250869052869052869052868152505050505050508080600101915050611568565b508584868585859c509c509c509c509c509c5050505050505050909192939495565b60006060600060608060606000611698612715565b600260008a815260200190815260200160002060e0604051908101604052908160008201548152602001600182018054600181600116156101000203166002900480601f01602080910402602001604051908101604052809291908181526020018280546001816001161561010002031660029004801561175a5780601f1061172f5761010080835404028352916020019161175a565b820191906000526020600020905b81548152906001019060200180831161173d57829003601f168201915b5050505050815260200160028201548152602001600382018054600181600116156101000203166002900480601f0160208091040260200160405190810160405280929190818152602001828054600181600116156101000203166002900480156118065780601f106117db57610100808354040283529160200191611806565b820191906000526020600020905b8154815290600101906020018083116117e957829003601f168201915b50505050508152602001600482018054600181600116156101000203166002900480601f0160208091040260200160405190810160405280929190818152602001828054600181600116156101000203166002900480156118a85780601f1061187d576101008083540402835291602001916118a8565b820191906000526020600020905b81548152906001019060200180831161188b57829003601f168201915b50505050508152602001600582018054600181600116156101000203166002900480601f01602080910402602001604051908101604052809291908181526020018280546001816001161561010002031660029004801561194a5780601f1061191f5761010080835404028352916020019161194a565b820191906000526020600020905b81548152906001019060200180831161192d57829003601f168201915b505050505081526020016006820160009054906101000a900473ffffffffffffffffffffffffffffffffffffffff1673ffffffffffffffffffffffffffffffffffffffff1673ffffffffffffffffffffffffffffffffffffffff16815250509050806000015181602001518260400151836060015184608001518560a001518660c00151859550839350829250819150975097509750975097509750975050919395979092949650565b6001835110151515611a3b576040517f08c379a0000000000000000000000000000000000000000000000000000000008152600401611a329061380d565b60405180910390fd5b600082111515611a80576040517f08c379a0000000000000000000000000000000000000000000000000000000008152600401611a779061394d565b60405180910390fd5b600b815110151515611ac7576040517f08c379a0000000000000000000000000000000000000000000000000000000008152600401611abe9061390d565b60405180910390fd5b6000806000868152602001908152602001600020905083816001019080519060200190611af5929190612769565b5082816002018190555081816003019080519060200190611b17929190612769565b507f6ee5a01c947af85f1172257cad5e65be06ddf70bd9860706ae96207eed96f78b85604051611b479190613afe565b60405180910390a15050505050565b60008310151515611b9c576040517f08c379a0000000000000000000000000000000000000000000000000000000008152600401611b939061392d565b60405180910390fd5b60008410151515611be2576040517f08c379a0000000000000000000000000000000000000000000000000000000008152600401611bd9906137ed565b60405180910390fd5b600081111515611c27576040517f08c379a0000000000000000000000000000000000000000000000000000000008152600401611c1e9061386d565b60405180910390fd5b600a8251141515611c6d576040517f08c379a0000000000000000000000000000000000000000000000000000000008152600401611c64906138ed565b60405180910390fd5b600060046000878152602001908152602001600020905084816001018190555083816002018190555082816003019080519060200190611cae929190612769565b508181600401819055507f137ef028ba8bb48406ad27cb3f1ced7308bb585a296d161d508242f88daf516286604051611ce79190613b2c565b60405180910390a1505050505050565b6001855110151515611d3e576040517f08c379a0000000000000000000000000000000000000000000000000000000008152600401611d359061384d565b60405180910390fd5b600084111515611d83576040517f08c379a0000000000000000000000000000000000000000000000000000000008152600401611d7a9061388d565b60405180910390fd5b600a8351141515611dc9576040517f08c379a0000000000000000000000000000000000000000000000000000000008152600401611dc09061382d565b60405180910390fd5b600a8251141515611e0f576040517f08c379a0000000000000000000000000000000000000000000000000000000008152600401611e06906138cd565b60405180910390fd5b6001815110151515611e56576040517f08c379a0000000000000000000000000000000000000000000000000000000008152600401611e4d906138ad565b60405180910390fd5b600060026000888152602001908152602001600020905085816001019080519060200190611e85929190612769565b5084816002018190555083816003019080519060200190611ea7929190612769565b5082816004019080519060200190611ec0929190612769565b5081816005019080519060200190611ed9929190612769565b507f57fed3c30b2b80ea60c400f26e61eda5bb9950b57589f063ca16f6af1f508a2e87604051611f099190613a74565b60405180910390a150505050505050565b6000611f246125b5565b611f2c612715565b6060600080611f396127e9565b6004600089815260200190815260200160002060c06040519081016040529081600082015481526020016001820154815260200160028201548152602001600382018054600181600116156101000203166002900480601f01602080910402602001604051908101604052809291908181526020018280546001816001161561010002031660029004801561200f5780601f10611fe45761010080835404028352916020019161200f565b820191906000526020600020905b815481529060010190602001808311611ff257829003601f168201915b50505050508152602001600482015481526020016005820160009054906101000a900473ffffffffffffffffffffffffffffffffffffffff1673ffffffffffffffffffffffffffffffffffffffff1673ffffffffffffffffffffffffffffffffffffffff168152505090508060000151600080836020015181526020019081526020016000206002600084604001518152602001908152602001600020836060015184608001518560a001518460a0604051908101604052908160008201548152602001600182018054600181600116156101000203166002900480601f01602080910402602001604051908101604052809291908181526020018280546001816001161561010002031660029004801561216b5780601f106121405761010080835404028352916020019161216b565b820191906000526020600020905b81548152906001019060200180831161214e57829003601f168201915b5050505050815260200160028201548152602001600382018054600181600116156101000203166002900480601f0160208091040260200160405190810160405280929190818152602001828054600181600116156101000203166002900480156122175780601f106121ec57610100808354040283529160200191612217565b820191906000526020600020905b8154815290600101906020018083116121fa57829003601f168201915b505050505081526020016004820160009054906101000a900473ffffffffffffffffffffffffffffffffffffffff1673ffffffffffffffffffffffffffffffffffffffff1673ffffffffffffffffffffffffffffffffffffffff168152505094508360e0604051908101604052908160008201548152602001600182018054600181600116156101000203166002900480601f0160208091040260200160405190810160405280929190818152602001828054600181600116156101000203166002900480156123285780601f106122fd57610100808354040283529160200191612328565b820191906000526020600020905b81548152906001019060200180831161230b57829003601f168201915b5050505050815260200160028201548152602001600382018054600181600116156101000203166002900480601f0160208091040260200160405190810160405280929190818152602001828054600181600116156101000203166002900480156123d45780601f106123a9576101008083540402835291602001916123d4565b820191906000526020600020905b8154815290600101906020018083116123b757829003601f168201915b50505050508152602001600482018054600181600116156101000203166002900480601f0160208091040260200160405190810160405280929190818152602001828054600181600116156101000203166002900480156124765780601f1061244b57610100808354040283529160200191612476565b820191906000526020600020905b81548152906001019060200180831161245957829003601f168201915b50505050508152602001600582018054600181600116156101000203166002900480601f0160208091040260200160405190810160405280929190818152602001828054600181600116156101000203166002900480156125185780601f106124ed57610100808354040283529160200191612518565b820191906000526020600020905b8154815290600101906020018083116124fb57829003601f168201915b505050505081526020016006820160009054906101000a900473ffffffffffffffffffffffffffffffffffffffff1673ffffffffffffffffffffffffffffffffffffffff1673ffffffffffffffffffffffffffffffffffffffff168152505093508292509650965096509650965096505091939550919395565b6005818154811015156125a157fe5b906000526020600020016000915090505481565b60a06040519081016040528060008152602001606081526020016000815260200160608152602001600073ffffffffffffffffffffffffffffffffffffffff1681525090565b828054600181600116156101000203166002900490600052602060002090601f016020900481019282601f1061263c57805160ff191683800117855561266a565b8280016001018555821561266a579182015b8281111561266957825182559160200191906001019061264e565b5b5090506126779190612836565b5090565b60e060405190810160405280600081526020016060815260200160008152602001606081526020016060815260200160608152602001600073ffffffffffffffffffffffffffffffffffffffff1681525090565b60a06040519081016040528060008152602001606081526020016000815260200160608152602001600073ffffffffffffffffffffffffffffffffffffffff1681525090565b60e060405190810160405280600081526020016060815260200160008152602001606081526020016060815260200160608152602001600073ffffffffffffffffffffffffffffffffffffffff1681525090565b828054600181600116156101000203166002900490600052602060002090601f016020900481019282601f106127aa57805160ff19168380011785556127d8565b828001600101855582156127d8579182015b828111156127d75782518255916020019190600101906127bc565b5b5090506127e59190612836565b5090565b60c0604051908101604052806000815260200160008152602001600081526020016060815260200160008152602001600073ffffffffffffffffffffffffffffffffffffffff1681525090565b61285891905b8082111561285457600081600090555060010161283c565b5090565b90565b600082601f830112151561286e57600080fd5b813561288161287c82613c2b565b613bfe565b9150808252602083016020830185838301111561289d57600080fd5b6128a8838284613d6c565b50505092915050565b60006128bd8235613d62565b905092915050565b6000806000606084860312156128da57600080fd5b600084013567ffffffffffffffff8111156128f457600080fd5b6129008682870161285b565b9350506020612911868287016128b1565b925050604084013567ffffffffffffffff81111561292e57600080fd5b61293a8682870161285b565b9150509250925092565b600080600080600060a0868803121561295c57600080fd5b600086013567ffffffffffffffff81111561297657600080fd5b6129828882890161285b565b9550506020612993888289016128b1565b945050604086013567ffffffffffffffff8111156129b057600080fd5b6129bc8882890161285b565b935050606086013567ffffffffffffffff8111156129d957600080fd5b6129e58882890161285b565b925050608086013567ffffffffffffffff811115612a0257600080fd5b612a0e8882890161285b565b9150509295509295909350565b600060208284031215612a2d57600080fd5b6000612a3b848285016128b1565b91505092915050565b60008060008060808587031215612a5a57600080fd5b6000612a68878288016128b1565b945050602085013567ffffffffffffffff811115612a8557600080fd5b612a918782880161285b565b9350506040612aa2878288016128b1565b925050606085013567ffffffffffffffff811115612abf57600080fd5b612acb8782880161285b565b91505092959194509250565b60008060008060008060c08789031215612af057600080fd5b6000612afe89828a016128b1565b965050602087013567ffffffffffffffff811115612b1b57600080fd5b612b2789828a0161285b565b9550506040612b3889828a016128b1565b945050606087013567ffffffffffffffff811115612b5557600080fd5b612b6189828a0161285b565b935050608087013567ffffffffffffffff811115612b7e57600080fd5b612b8a89828a0161285b565b92505060a087013567ffffffffffffffff811115612ba757600080fd5b612bb389828a0161285b565b9150509295509295509295565b60008060008060808587031215612bd657600080fd5b6000612be4878288016128b1565b9450506020612bf5878288016128b1565b935050604085013567ffffffffffffffff811115612c1257600080fd5b612c1e8782880161285b565b9250506060612c2f878288016128b1565b91505092959194509250565b600080600080600060a08688031215612c5357600080fd5b6000612c61888289016128b1565b9550506020612c72888289016128b1565b9450506040612c83888289016128b1565b935050606086013567ffffffffffffffff811115612ca057600080fd5b612cac8882890161285b565b9250506080612cbd888289016128b1565b9150509295509295909350565b612cd381613d26565b82525050565b6000612ce482613c98565b808452602084019350612cf683613c57565b60005b82811015612d2857612d0c868351612cca565b612d1582613ce5565b9150602086019550600181019050612cf9565b50849250505092915050565b6000612d3f82613ca3565b80845260208401935083602082028501612d5885613c64565b60005b84811015612d91578383038852612d73838351612f0f565b9250612d7e82613cf2565b9150602088019750600181019050612d5b565b508196508694505050505092915050565b6000612dad82613cae565b80845260208401935083602082028501612dc685613c71565b60005b84811015612dff578383038852612de183835161345e565b9250612dec82613cff565b9150602088019750600181019050612dc9565b508196508694505050505092915050565b6000612e1b82613cb9565b80845260208401935083602082028501612e3485613c7e565b60005b84811015612e6d578383038852612e4f83835161358c565b9250612e5a82613d0c565b9150602088019750600181019050612e37565b508196508694505050505092915050565b6000612e8982613cc4565b808452602084019350612e9b83613c8b565b60005b82811015612ecd57612eb186835161363d565b612eba82613d19565b9150602086019550600181019050612e9e565b50849250505092915050565b6000612ee482613cda565b808452612ef8816020860160208601613d7b565b612f0181613dae565b602085010191505092915050565b6000612f1a82613ccf565b808452612f2e816020860160208601613d7b565b612f3781613dae565b602085010191505092915050565b6000601782527f456d707265736120c3a9206f627269676174c3b372696f0000000000000000006020830152604082019050919050565b6000601c82527f52617a616f20736f6369616c20c3a9206f627269676174c3b372696f000000006020830152604082019050919050565b6000602582527f496e666f726d6520756d61206461746120646520696e6963696f2031302f303860208301527f2f323032300000000000000000000000000000000000000000000000000000006040830152606082019050919050565b6000602382527f4c6963697461c3a7c3a36f20617475616c697a61646120636f6d20737563636560208301527f73736f00000000000000000000000000000000000000000000000000000000006040830152606082019050919050565b6000602282527f4c6963697461c3a7c3a36f206361646173747261646120636f6d20737563657360208301527f736f0000000000000000000000000000000000000000000000000000000000006040830152606082019050919050565b6000601882527f4f20746974756c6f20c3a9206f627269676174c3b372696f00000000000000006020830152604082019050919050565b6000601982527f496e666f726d6520756d612076616c6f722076c3a16c69646f000000000000006020830152604082019050919050565b6000601e82527f456d7072657361206361646173747261646120636f6d207375636573736f00006020830152604082019050919050565b6000601082527f436f6469676f20696e76c3a16c69646f000000000000000000000000000000006020830152604082019050919050565b6000601982527f496e666f726d6520756d207374617475732076c3a16c69646f000000000000006020830152604082019050919050565b6000602682527f496e666f726d6520756d612064617461206465207465726d696e6f2032302f3060208301527f382f3230323000000000000000000000000000000000000000000000000000006040830152606082019050919050565b6000601f82527f456d707265736120617475616c697a61646120636f6d20737563636573736f006020830152604082019050919050565b6000601e82527f4f666572746120617475616c697a61646120636f6d20737563636573736f00006020830152604082019050919050565b6000601b82527f496e666f726d6520756d6120646174612030352f30382f3230323000000000006020830152604082019050919050565b6000602582527f496e666f726d6520756d2074656c65666f6e652063656c756c617220636f6d2060208301527f28444444290000000000000000000000000000000000000000000000000000006040830152606082019050919050565b6000601d82527f4f6665727461206361646173747261646120636f6d207375636573736f0000006020830152604082019050919050565b6000601b82527f4c6963697461c3a7c3a36f20c3a9206f627269676174c3b372696f00000000006020830152604082019050919050565b6000600f82527f496e666f726d6520756d20636e706a00000000000000000000000000000000006020830152604082019050919050565b600060a0830160008301516133f9600086018261363d565b50602083015184820360208601526134118282612f0f565b9150506040830151613426604086018261363d565b506060830151848203606086015261343e8282612f0f565b91505060808301516134536080860182612cca565b508091505092915050565b600060a083016000830151613476600086018261363d565b506020830151848203602086015261348e8282612f0f565b91505060408301516134a3604086018261363d565b50606083015184820360608601526134bb8282612f0f565b91505060808301516134d06080860182612cca565b508091505092915050565b600060e0830160008301516134f3600086018261363d565b506020830151848203602086015261350b8282612f0f565b9150506040830151613520604086018261363d565b50606083015184820360608601526135388282612f0f565b915050608083015184820360808601526135528282612f0f565b91505060a083015184820360a086015261356c8282612f0f565b91505060c083015161358160c0860182612cca565b508091505092915050565b600060e0830160008301516135a4600086018261363d565b50602083015184820360208601526135bc8282612f0f565b91505060408301516135d1604086018261363d565b50606083015184820360608601526135e98282612f0f565b915050608083015184820360808601526136038282612f0f565b91505060a083015184820360a086015261361d8282612f0f565b91505060c083015161363260c0860182612cca565b508091505092915050565b61364681613d58565b82525050565b600060a08201905081810360008301526136668188612e7e565b9050818103602083015261367a8187612d34565b9050818103604083015261368e8186612e7e565b905081810360608301526136a28185612d34565b905081810360808301526136b68184612cd9565b90509695505050505050565b600060e08201905081810360008301526136dc818a612e7e565b905081810360208301526136f08189612d34565b905081810360408301526137048188612e7e565b905081810360608301526137188187612d34565b9050818103608083015261372c8186612d34565b905081810360a08301526137408185612d34565b905081810360c08301526137548184612cd9565b905098975050505050505050565b600060c082019050818103600083015261377c8189612e7e565b905081810360208301526137908188612da2565b905081810360408301526137a48187612e10565b905081810360608301526137b88186612d34565b905081810360808301526137cc8185612e7e565b905081810360a08301526137e08184612cd9565b9050979650505050505050565b6000602082019050818103600083015261380681612f45565b9050919050565b6000602082019050818103600083015261382681612f7c565b9050919050565b6000602082019050818103600083015261384681612fb3565b9050919050565b60006020820190508181036000830152613866816130ca565b9050919050565b6000602082019050818103600083015261388681613101565b9050919050565b600060208201905081810360008301526138a68161316f565b9050919050565b600060208201905081810360008301526138c6816131a6565b9050919050565b600060208201905081810360008301526138e6816131dd565b9050919050565b60006020820190508181036000830152613906816132a8565b9050919050565b60006020820190508181036000830152613926816132df565b9050919050565b6000602082019050818103600083015261394681613373565b9050919050565b60006020820190508181036000830152613966816133aa565b9050919050565b6000602082019050613982600083018461363d565b92915050565b600060a08201905061399d600083018861363d565b81810360208301526139af8187612ed9565b90506139be604083018661363d565b81810360608301526139d08185612ed9565b90506139df6080830184612cca565b9695505050505050565b600060e0820190506139fe600083018a61363d565b8181036020830152613a108189612ed9565b9050613a1f604083018861363d565b8181036060830152613a318187612ed9565b90508181036080830152613a458186612ed9565b905081810360a0830152613a598185612ed9565b9050613a6860c0830184612cca565b98975050505050505050565b6000604082019050613a89600083018461363d565b8181036020830152613a9a81613010565b905092915050565b6000604082019050613ab7600083018461363d565b8181036020830152613ac88161306d565b905092915050565b6000604082019050613ae5600083018461363d565b8181036020830152613af681613138565b905092915050565b6000604082019050613b13600083018461363d565b8181036020830152613b248161323a565b905092915050565b6000604082019050613b41600083018461363d565b8181036020830152613b5281613271565b905092915050565b6000604082019050613b6f600083018461363d565b8181036020830152613b808161333c565b905092915050565b600060c082019050613b9d600083018961363d565b8181036020830152613baf81886133e1565b90508181036040830152613bc381876134db565b90508181036060830152613bd78186612ed9565b9050613be6608083018561363d565b613bf360a0830184612cca565b979650505050505050565b6000604051905081810181811067ffffffffffffffff82111715613c2157600080fd5b8060405250919050565b600067ffffffffffffffff821115613c4257600080fd5b601f19601f8301169050602081019050919050565b6000602082019050919050565b6000602082019050919050565b6000602082019050919050565b6000602082019050919050565b6000602082019050919050565b600081519050919050565b600081519050919050565b600081519050919050565b600081519050919050565b600081519050919050565b600081519050919050565b600081519050919050565b6000602082019050919050565b6000602082019050919050565b6000602082019050919050565b6000602082019050919050565b6000602082019050919050565b6000613d3182613d38565b9050919050565b600073ffffffffffffffffffffffffffffffffffffffff82169050919050565b6000819050919050565b6000819050919050565b82818337600083830152505050565b60005b83811015613d99578082015181840152602081019050613d7e565b83811115613da8576000848401525b50505050565b6000601f19601f830116905091905056fea265627a7a72305820960ad785833607c6d68faa6d91ae0c370e98531e764dc0d50dea459811d21a306c6578706572696d656e74616cf50037",
  "source": "pragma solidity ^0.5.0;\npragma experimental ABIEncoderV2;\n\ncontract LicitacaoContract {\n\n    event empresaRegistered(uint _empresaId, string _msg);\n\n    event empresaUpdated(uint _empresaId, string _msg);\n\n    event licitacaoRegistered(uint _licitacaoId, string _msg);\n\n    event licitacaoUpdated(uint _licitacaoId, string _msg);\n\n    event ofertaRegistered(uint _licitacaoId, string _msg);\n\n    event ofertaUpdated(uint _licitacaoId, string _msg);\n\n    struct Empresa {\n        uint id;\n        string razaoSocial;\n        uint cnpj;\n        string telefone;\n        address owner;\n    }\n\n    struct Licitacao {\n        uint id;\n        string titulo;\n        uint codigo;\n        string dataInicio;\n        string dataFim;\n        string status;\n        address owner;\n    }\n\n    struct Oferta {\n        uint id;\n        uint empresaId;\n        uint licitacaoId;\n        string data;\n        uint valor;\n        address owner;\n    }\n\n    mapping (uint => Empresa) empresas;\n    uint[] public empresasIds;\n\n    mapping (uint => Licitacao) licitacoes;\n    uint[] public licitacoesIds;\n\n    mapping (uint => Oferta) ofertas;\n    uint[] public ofertasIds;\n\n    uint256 private empresaId = 0;\n    uint256 private licitacaoId = 0;\n    uint256 private ofertaId = 0;\n\n    function adicionarEmpresa(string memory _razaoSocial, uint _cnpj, string memory _telefone) public {\n\n        require(bytes(_razaoSocial).length >= 1, \"Razao social  obrigatrio\");\n        require(_cnpj > 0, \"Informe um cnpj\");\n        require(bytes(_telefone).length >= 11 , \"Informe um telefone celular com (DDD)\");\n\n        empresas[empresaId] = Empresa(empresaId, _razaoSocial, _cnpj, _telefone, msg.sender);\n        empresasIds.push(empresaId);\n        empresaId++;\n        emit empresaRegistered(empresaId - 1, \"Empresa cadastrada com sucesso\");\n    }\n\n    function alterarEmpresa(uint _id, string memory _razaoSocial, uint _cnpj, string memory _telefone) public {\n\n        require(bytes(_razaoSocial).length >= 1, \"Razao social  obrigatrio\");\n        require(_cnpj > 0, \"Informe um cnpj\");\n        require(bytes(_telefone).length >= 11 , \"Informe um telefone celular com (DDD)\");\n        \n        Empresa storage emp = empresas[_id];\n\n        emp.razaoSocial = _razaoSocial;\n        emp.cnpj = _cnpj;\n        emp.telefone = _telefone;\n\n        emit empresaUpdated(_id, \"Empresa atualizada com successo\");\n    }\n\n    function empresaInfo(uint _id) public view\n        returns(\n            uint,\n            string memory,\n            uint,\n            string memory,\n            address\n        ) {\n\n            Empresa memory empresa = empresas[_id];\n\n            return (\n                empresa.id,\n                empresa.razaoSocial,\n                empresa.cnpj,\n                empresa.telefone,\n                empresa.owner\n            );\n    }\n\n    function listarEmpresas() public view returns(uint[] memory, string[] memory, uint[] memory, string[] memory, address[] memory) {\n\n        uint[] memory ids = empresasIds;\n\n        uint[] memory idsEmpresas = new uint[](ids.length);\n        string[] memory razoesSociais = new string[](ids.length);\n        uint[] memory cnpjs = new uint[](ids.length);\n        string[] memory telefones = new string[](ids.length);\n        address[] memory owners = new address[](ids.length);\n\n        for (uint i = 0; i < ids.length; i++) {\n            (idsEmpresas[i], razoesSociais[i], cnpjs[i], telefones[i], owners[i]) = empresaInfo(i);\n        }\n\n        return (idsEmpresas, razoesSociais, cnpjs, telefones, owners);\n    }\n\n    function adicionarLicitacao(\n        string memory _titulo, uint _codigo, string memory _dataInicio, string memory _dataFim, string memory _status\n        ) public {\n\n        require(bytes(_titulo).length >= 1, \"O titulo  obrigatrio\");\n        require(_codigo > 0, \"Codigo invlido\");\n        require(bytes(_dataInicio).length == 10, \"Informe uma data de inicio 10/08/2020\");\n        require(bytes(_dataFim).length == 10, \"Informe uma data de termino 20/08/2020\");\n        require(bytes(_status).length >= 1 , \"Informe um status vlido\");\n\n        licitacoes[licitacaoId] = Licitacao(licitacaoId, _titulo, _codigo, _dataInicio, _dataFim, _status, msg.sender);\n        licitacoesIds.push(licitacaoId);\n        licitacaoId++;\n        \n        emit licitacaoRegistered(licitacaoId - 1, \"Licitao cadastrada com sucesso\");\n    }\n\n    function alterarLicitacao(\n        uint _id, string memory _titulo, uint _codigo, string memory _dataInicio, string memory _dataFim, string memory _status\n        ) public {\n\n        require(bytes(_titulo).length >= 1, \"O titulo  obrigatrio\");\n        require(_codigo > 0, \"Codigo invlido\");\n        require(bytes(_dataInicio).length == 10, \"Informe uma data de inicio 10/08/2020\");\n        require(bytes(_dataFim).length == 10, \"Informe uma data de termino 20/08/2020\");\n        require(bytes(_status).length >= 1 , \"Informe um status vlido\");\n\n        Licitacao storage licitacao = licitacoes[_id];\n\n        licitacao.titulo = _titulo;\n        licitacao.codigo = _codigo;\n        licitacao.dataInicio = _dataInicio;\n        licitacao.dataFim = _dataFim;\n        licitacao.status = _status;\n\n        emit licitacaoUpdated(_id, \"Licitao atualizada com successo\");\n    }\n\n    function licitacaoInfo(uint _id) public view\n        returns(\n            uint,\n            string memory,\n            uint,\n            string memory,\n            string memory,\n            string memory,\n            address\n        ) {\n\n            Licitacao memory licitacao = licitacoes[_id];\n\n            return (\n                licitacao.id,\n                licitacao.titulo,\n                licitacao.codigo,\n                licitacao.dataInicio,\n                licitacao.dataFim,\n                licitacao.status,\n                licitacao.owner\n            );\n    }\n\n    function listarLicitacoes() public view returns(\n        uint[] memory, string[] memory, uint[] memory, string[] memory, string[] memory, string[] memory, address[] memory\n        ) {\n\n        uint[] memory ids = licitacoesIds;\n\n        uint[] memory idsLicitacoes = new uint[](ids.length);\n        string[] memory titulos = new string[](ids.length);\n        uint[] memory codigos = new uint[](ids.length);\n        string[] memory datasInicio = new string[](ids.length);\n        string[] memory datasFim = new string[](ids.length);\n        string[] memory status = new string[](ids.length);\n        address[] memory owners = new address[](ids.length);\n\n        for (uint i = 0; i < ids.length; i++) {\n            (idsLicitacoes[i], titulos[i], codigos[i], datasInicio[i], datasFim[i], status[i], owners[i]) = licitacaoInfo(i);\n        }\n\n        return (idsLicitacoes, titulos, codigos, datasInicio, datasFim, status, owners);\n    }\n\n    function adicionarOferta(uint _empresaId, uint _licitacaoId, string memory _data, uint _valor) public {\n\n        require(_licitacaoId >= 0, \"Licitao  obrigatrio\");\n        require(_empresaId >= 0, \"Empresa  obrigatrio\");\n        require(_valor > 0, \"Informe uma valor vlido\");\n        require(bytes(_data).length == 10, \"Informe uma data 05/08/2020\");\n        \n        ofertas[ofertaId] = Oferta(ofertaId, _empresaId, _licitacaoId, _data, _valor, msg.sender);\n        ofertasIds.push(ofertaId);\n        ofertaId++;\n        emit ofertaRegistered(ofertaId - 1, \"Oferta cadastrada com sucesso\");\n    }\n\n    function alterarOferta(uint _id, uint _empresaId, uint _licitacaoId, string memory _data, uint _valor) public {\n\n        require(_licitacaoId >= 0, \"Licitao  obrigatrio\");\n        require(_empresaId >= 0, \"Empresa  obrigatrio\");\n        require(_valor > 0, \"Informe uma valor vlido\");\n        require(bytes(_data).length == 10, \"Informe uma data 05/08/2020\");\n        \n        Oferta storage oferta = ofertas[_id];\n\n        oferta.empresaId = _empresaId;\n        oferta.licitacaoId = _licitacaoId;\n        oferta.data = _data;\n        oferta.valor = _valor;\n\n        emit ofertaUpdated(_id, \"Oferta atualizada com successo\");\n    }\n\n    function ofertaInfo(uint _id) public view\n        returns(\n            uint,\n            Empresa memory,\n            Licitacao memory,\n            string memory,\n            uint,\n            address\n        ) {\n\n            Oferta memory oferta = ofertas[_id];\n\n            return (\n                oferta.id,\n                empresas[oferta.empresaId],\n                licitacoes[oferta.licitacaoId],\n                oferta.data,\n                oferta.valor,\n                oferta.owner\n            );\n    }\n\n    function listarOfertas() public view returns(\n        uint[] memory, Empresa[] memory, Licitacao[] memory, string[] memory, uint[] memory, address[] memory) {\n\n        uint[] memory ids = ofertasIds;\n\n        uint[] memory idsOfertas = new uint[](ids.length);\n        Licitacao[] memory licit = new Licitacao[](ids.length);\n        Empresa[] memory emp = new Empresa[](ids.length);\n        string[] memory datas = new string[](ids.length);\n        uint[] memory valores = new uint[](ids.length);\n        address[] memory owners = new address[](ids.length);\n\n        for (uint i = 0; i < ids.length; i++) {\n            (idsOfertas[i], emp[i], licit[i], datas[i], valores[i], owners[i]) = ofertaInfo(i);\n        }\n\n        return (idsOfertas, emp, licit, datas, valores, owners);\n    }\n\n}",
  "sourcePath": "/home/alenkaleb/Documentos/Implementaes Cases de Blockchain/iesb-blockchain/licitacao-blockchain/dapp/contracts/LicitacaoContract.sol",
  "compiler": {
    "name": "solc",
    "version": "0.5.0+commit.1d4f565a.Emscripten.clang"
  },
  "schemaVersion": "3.1.0",
  "updatedAt": "2020-06-10T00:28:25.278Z",
  "networkType": "ethereum",
  "devdoc": {
    "methods": {}
  },
  "userdoc": {
    "methods": {}
  }
}